:100000000C9424010C9441010C9441010C94410185
:100010000C9441010C9441010C9441010C94410158
:100020000C9441010C9441010C9441010C94B201D7
:100030000C9441010C9441010C9441010C94410138
:100040000C9441010C9441010C9441010C94410128
:100050000C9441010C9441010C9441010C94410118
:100060000C9441010C944101000000000000005F6D
:1000700000000007000700147F147F14242A7F2A41
:10008000122313086462364955225000050300000C
:10009000001C2241000041221C0014083E081408E4
:1000A000083E0808005030000008080808080060F2
:1000B00060000020100804023E5149453E00427F86
:1000C000400042615149462141454B311814127F8D
:1000D0001027454545393C4A494930017109050316
:1000E0003649494936064949291E0036360000007E
:1000F0005636000008142241001414141414004150
:100100002214080201510906324979413E7E11113B
:10011000117E7F494949363E414141227F4141227A
:100120001C7F494949417F090909013E4149497AF2
:100130007F0808087F00417F41002040413F017F48
:10014000081422417F404040407F020C027F7F0420
:1001500008107F3E4141413E7F090909063E415159
:10016000215E7F09192946464949493101017F012C
:10017000013F4040403F1F2040201F3F4038403F4C
:100180006314081463070870080761514945430068
:100190007F41410002040810200041417F00040219
:1001A0000102044040404040000102040020545439
:1001B00054787F48444438384444442038444448C0
:1001C0007F3854545418087E0901020C5252523E92
:1001D0007F0804047800447D40002040443D007FB7
:1001E0001028440000417F40007C041804787C08FB
:1001F00004047838444444387C1414140808141453
:10020000187C7C080404084854545420043F44409B
:10021000203C4040207C1C2040201C3C4030403C86
:1002200044281028440C5050503C4464544C440022
:100230000836410000007F00000041360800100829
:10024000081008000000000011241FBECFEFD8E006
:10025000DEBFCDBF11E0A0E0B1E0ECE7FCE002C002
:1002600005900D92A432B107D9F723E0A4E2B1E0E2
:1002700001C01D92A036B207E1F70E9477030C94EB
:100280003C060C940000CF93DF9300D000D0CDB794
:10029000DEB70E9430020E94730261E08EE091E0BE
:1002A0000E944D0360910A0170910B0180910C0135
:1002B00090910D010E94830569837A838B839C83CF
:1002C00061E089810E94AC0261E08EE20E94AC0292
:1002D00060910601709107018091080190910901D8
:1002E0000E94830569837A838B839C8361E0898183
:1002F0000E94AC026091020170910301809104019F
:10030000909105010E94830569837A838B839C8386
:1003100061E089810E94AC0261E088E191E00E9485
:100320004D0361E0809100010E94AC020F900F909C
:100330000F900F90DF91CF910C946203E1E8F0E011
:1003400080818860808388E09DE39093890080931A
:100350008800AFE6B0E08C9182608C9380818560EC
:10036000808308951F920F920FB60F9211242F933E
:100370003F934F935F936F937F938F939F93AF932D
:10038000BF93EF93FF93809125018823C9F180915A
:100390000001909101018133910594F101979093AF
:1003A0000101809300010E9443018091000190911E
:1003B0000101C09729F580E090E0A0E4B2E48093C9
:1003C0000A0190930B01A0930C01B0930D0180934F
:1003D000060190930701A0930801B093090180934F
:1003E000020190930301A0930401B09305011092C0
:1003F00025014498439A81E0809324010E9443019F
:10040000FF91EF91BF91AF919F918F917F916F91EC
:100410005F914F913F912F910F900FBE0F901F90C2
:10042000189529986623A9F02B9A27E030E090E0F0
:10043000AC01022E02C0559547950A94E2F740FFA1
:100440000AC02C9A2D9A2D982150310988F7299AA3
:1004500008952B98EACF2C98F5CF60E00C94110208
:10046000CF93DF93219A229A239A249A259A2A9A43
:10047000299A8FE39CE90197F1F700C000002A98C0
:100480009FEF2AE683E0915020408040E1F700C0D2
:1004900000002A9A299881E20E942D0283E10E949D
:1004A0002D0286E00E942D0282EC0E942D0280E245
:1004B0000E942D0289E00E942D0280E80E942D02F8
:1004C00080E40E942D02C8EFD1E061E080E00E944C
:1004D00011022197D1F788E00E942D028CE0DF9174
:1004E000CF910C942D0280E80E942D0280E40E949E
:1004F0002D0210925E0310925F03E6E6F1E088EFB2
:1005000091E0DF019C011D9221503040E1F70895F8
:10051000811103C084E20C942D0280E2FCCF962F5F
:10052000969596959695E82FF0E084E5989FE00DD6
:10053000F11D1124EA59FE4F2081677081E090E09F
:1005400001C0880F6A95EAF7442319F0282B20830D
:10055000089580952823FBCF8F929F92AF92BF92F0
:10056000DF92EF92FF920F931F93CF93DF9300D010
:1005700000D00F92CDB7DEB7E82FF62E80320CF404
:100580004DC0E05285E0E802B001112468597F4F68
:1005900045E050E0CE0101960E9433068E010F5FC8
:1005A0001F4F95E0F99E5001112487E0F89E40010D
:1005B0001124E12CEA141B040CF463C080915E0347
:1005C0008F5F9F2D990F990F9F0D890F80935E0369
:1005D000843558F080915F0310925E038F5F97E03F
:1005E000F99E800D112480935F0380915F03803317
:1005F00020F010925E0310925F030F900F900F9007
:100600000F900F90DF91CF911F910F91FF90EF907E
:10061000DF90BF90AF909F908F900895EE0FFF0BEB
:10062000EA5DFE4F008111810115110509F0B9CF76
:1006300045E050E068E670E0ADCFED0D5E0D8E2D2B
:100640006F2D0E940A05D801A80FB11D2C9130E032
:100650008D2D0E940A0502C0359527958A95E2F7EF
:1006600041E020FF40E06E2F852F0E948F02D3943F
:10067000E0915F0350915E03D8141904F4F2E394FF
:1006800099CFD12CF5CFE82F803234F4EE0FFF0B49
:10069000EA5DFE4F7183608308951F93CF93DF93CC
:1006A000162FEC018991811104C0DF91CF911F9128
:1006B0000895612F0E94AC02F5CF80935E03609392
:1006C0005F030895CF93DF9380E80E942D0280E4BA
:1006D0000E942D02C6E6D1E061E089910E941102DC
:1006E00083E0CE35D807C1F7DF91CF910895CDB71C
:1006F000DEB728970FB6F894DEBF0FBECDBF8AB124
:10070000807F8AB98BB18F608BB987B1886387B9D5
:100710000E9443010E949E01789411E0C12CD12CCB
:1007200080E4E82E82E4F82E80912401811101C03A
:10073000459A80910A0190910B01A0910C01B09112
:100740000D0189839A83AB83BC83809106019091CC
:100750000701A0910801B09109018D839E83AF83A9
:10076000B88720E030E044E452E469817A818B81EB
:100770009C810E940A0687FD0CC020E030E044E521
:1007800052E46D817E818F8198850E940A0687FFE1
:100790006EC020E030E044E452E469817A818B81CC
:1007A0009C810E940A0618160CF461C0489B7AC00E
:1007B000499935C080912401882319F043981092FB
:1007C000240180912501811128C020E030E040EA19
:1007D00050E46091060170910701809108019091A9
:1007E00009010E94170569837A838B839C8320E02B
:1007F00030E048E652E40E940A0687FFECC0898197
:100800009A81AB81BC818093060190930701A093EC
:100810000801B09309010E944301499BFECF4A9908
:1008200083CF80912401882319F0439810922401EA
:1008300080912501811118C020E030E040E85FE39D
:1008400060910A0170910B0180910C0190910D0152
:100850000E94170560930A0170930B0180930C01AD
:1008600090930D010E9443014A9BFECF5DCF4B99AF
:1008700078CF89E390E09093010180930001109379
:1008800025014598449A0E944301209125018091B9
:10089000000190910101222309F44BCF813391058E
:1008A000D4F747CF80912401882319F04398109200
:1008B00024018091250181118BC020E030E040E0CF
:1008C00050E46091060170910701809108019091B8
:1008D00009010E94170569837A838B839C83DC015D
:1008E000CB018093060190930701A0930801B09378
:1008F000090120E030E040EA50E46091020170918B
:10090000030180910401909105010E9417056D83F8
:100910007E838F839887DC01CB01809302019093C3
:100920000301A0930401B093050120E030E048E604
:1009300052E4CD010E940A0687FD1AC020E030E093
:1009400040E85FE369817A818B819C810E94170571
:100950006093060170930701809308019093090149
:10096000C0920201D0920301E0920401F0920501CD
:1009700020E030E048E652E4609106017091070102
:1009800080910801909109010E940A0687FD1EC00E
:1009900020E030E040E85FE360910A0170910B01D4
:1009A00080910C0190910D010E94170560930A013E
:1009B00070930B0180930C0190930D01C09206017E
:1009C000D0920701E0920801F09209010E944301D0
:1009D000489BFECFEDCEC0920601D0920701E09277
:1009E0000801F092090120E030E040E85FE3609107
:1009F0000A0170910B0180910C0190910D010E94F0
:100A0000170560930A0170930B0180930C0190937A
:100A10000D0101CF991B79E004C0991F961708F0CA
:100A2000961B881F7A95C9F7809508955058BB2763
:100A3000AA270E942E050C94D0050E94C20538F00A
:100A40000E94C90520F039F49F3F19F426F40C9454
:100A5000BF050EF4E095E7FB0C94B905E92F0E9461
:100A6000E10558F3BA17620773078407950720F06A
:100A700079F4A6F50C9403060EF4E0950B2EBA2F2C
:100A8000A02D0B01B90190010C01CA01A001112494
:100A9000FF27591B99F0593F50F4503E68F11A1640
:100AA000F040A22F232F342F4427585FF3CF4695D1
:100AB00037952795A795F0405395C9F77EF41F16F3
:100AC000BA0B620B730B840BBAF09150A1F0FF0FBD
:100AD000BB1F661F771F881FC2F70EC0BA0F621FA9
:100AE000731F841F48F4879577956795B795F79599
:100AF0009E3F08F0B0CF9395880F08F09927EE0F2E
:100B00009795879508950E948A056894B1110C9471
:100B1000040608950E94E90588F09F5798F0B92FC0
:100B20009927B751B0F0E1F0660F771F881F991F22
:100B30001AF0BA95C9F714C0B13091F00E940306BB
:100B4000B1E008950C940306672F782F8827B85FCB
:100B500039F0B93FCCF3869577956795B395D9F77A
:100B60003EF490958095709561957F4F8F4F9F4F84
:100B7000089597F99F6780E870E060E008959FEF1F
:100B800080EC089500240A94161617061806090624
:100B9000089500240A9412161306140605060895F3
:100BA000092E0394000C11F4882352F0BB0F40F47B
:100BB000BF2B11F460FF04C06F5F7F4F8F4F9F4FBB
:100BC000089557FD9058440F551F59F05F3F71F03D
:100BD0004795880F97FB991F61F09F3F79F08795A4
:100BE0000895121613061406551FF2CF4695F1DF2D
:100BF00008C0161617061806991FF1CF86957105BD
:100C0000610508940895E894BB2766277727CB01F0
:100C100097F908950E940F0608F48FEF0895990F31
:100C20000008550FAA0BE0E8FEEF16161706E807B6
:100C3000F907C0F012161306E407F50798F0621BD7
:100C4000730B840B950B39F40A2661F0232B242BAC
:100C5000252B21F408950A2609F4A140A6958FEFCB
:100C6000811D811D0895FB01DC0102C005900D92DC
:0C0C700041505040D8F70895F894FFCF91
:100C7C0030000000404200004042000040424372FD
:100C8C00656469746F3A20000A0A0A0A54656D702B
:040C9C006F3A20008B
:00000001FF
