:100000000C9434000C9453000C9451000C94510047
:100010000C9451000C9451000C9451000C9451001C
:100020000C9451000C9451000C9451000C9451000C
:100030000C9451000C9451000C9451000C945100FC
:100040000C9451000C9451000C9451000C945100EC
:100050000C9451000C9451000C9451000C945100DC
:100060000C9451000C94510011241FBECFEFD8E026
:10007000DEBFCDBF11E0A0E0B1E0E2ECF2E002C0F3
:1000800005900D92A230B107D9F721E0A2E0B1E0CE
:1000900001C01D92A430B207E1F70E9466000C94E3
:1000A0005F010C9400001F921FB61F9211248F93C2
:1000B0009F939091020181E0911180E08093020171
:1000C0009F918F911F901FBE1F90189584B18F61D3
:1000D00084B952985A9A83E08093690081E08DBB7D
:1000E000789481E090E020910201222309F4E2C09B
:1000F00020910301253009F04DC01092020120919A
:100100000301222381F330E020E04FEF59E668E15C
:10011000415050406040E1F700C0000040910201B2
:10012000413091F12930310551F540910301609141
:100130000001709101014150550BFC0102C0EE0F0E
:10014000FF1F4A95E2F7AF01462B572B5093010151
:10015000409300016091030145B16150770BFC01B0
:1001600002C0EE0FFF1F6A95E2F7BF016095709520
:10017000462345B9409103014150409303012F5F4D
:100180003F4F2A30310509F620910201213009F054
:10019000B6CFA9CF50E040E0FFEF25EA3EE0F150B6
:1001A00020403040E1F700C00000609100017091F4
:1001B000010125B1262725B920910201222309F446
:1001C00092CF4930510549F5209103012F5F2093CB
:1001D00003016091030125B16150770BFC0102C05E
:1001E000EE0FFF1F6A95E2F72E2B25B92091030130
:1001F00060910001709101012150330BFC0102C09C
:10020000EE0FFF1F2A95E2F79F01209530952623D8
:10021000372330930101209300014F5F5F4F4A3035
:10022000510509F0B9CF5FCF30E020E0FFEF49E69C
:1002300058E1F15040405040E1F700C000004091CB
:100240000201413091F12930310551F5409103010E
:1002500060910001709101014150550BFC0102C0F9
:10026000EE0FFF1F4A95E2F7AF01462B572B509335
:100270000101409300016091030145B16150770B8A
:10028000FC0102C0EE0FFF1F6A95E2F7BF01609507
:100290007095462345B940910301415040930301B5
:1002A0002F5F3F4F2A30310509F62091020121309E
:1002B00009F419CF209103012111B6CF14CFF8947E
:0202C000FFCF6E
:0202C2001F001B
:00000001FF
